:100000000C9434000C9451000C9451000C94510049
:100010000C9451000C9451000C9451000C9451001C
:100020000C9451000C9451000C9451000C9451000C
:100030000C9451000C9451000C9451000C945100FC
:100040000C9451000C9451000C9433050C945B05F6
:100050000C9451000C9451000C9451000C945100DC
:100060000C9451000C94510011241FBECFEFD8E026
:10007000DEBFCDBF11E0A0E0B1E0EEE3FEE002C0E4
:1000800005900D92A632B107D9F721E0A6E2B1E0C2
:1000900001C01D92AA36B207E1F70E9497050C94A1
:1000A0001D070C94000040E020E0843050F4282F1D
:1000B000279522272795205FE82FF0E0E050FF4F9B
:1000C000408155B181E090E001C0880F4A95EAF780
:1000D000382F3095352335B97F70722B7EBD0DB426
:1000E00007FEFDCF6EBD0DB407FEFDCF95B1892B88
:1000F00085B90895CF9384B18E6284B91DBC82E521
:100100008CBDC0E070E060E08C2F0E945300CF5F98
:10011000C430C1F7CF910895FC01918126E0AF0171
:10012000929F400D511D1124FA01EB5DFE4F01908D
:10013000F081E02D63E070E0CA018B5D9E4F099471
:10014000FC01918126E0AF01929F400D511D1124C9
:10015000FA01EB5DFE4F0190F081E02D64E070E06C
:10016000CA018B5D9E4F0994FC01918126E0AF018D
:10017000929F400D511D1124FA01EB5DFE4F01903D
:10018000F081E02D65E070E0CA018B5D9E4F09941F
:10019000CF93DF93FC01842F6F3001F56CE00E9458
:1001A000C3069230B9F068F4992391F083E091305E
:1001B00069F0CF010E9444040C940000DF91CF91BC
:1001C0000895943049F084E0953099F78183F1CF18
:1001D0001182EFCF81E0FACF82E0F8CF91812081C8
:1001E000261711F0933051F7C92FD0E0DF0126E038
:1001F000929FA00DB11D1124A95DBE4F6C93228169
:100200002817F8F4821B46E04C9F90014D9F300D5B
:1002100011242E0F3F1FD901A85DBE4F8C93BF0143
:10022000949F600D711D1124CB012B5D3E4FD901B0
:10023000ED91FC9161E070E08B5D9E4FDF91CF917D
:10024000099480E0E0CFFC01508156132CC021813D
:10025000622F70E086E0289F90011124C9018B5D18
:100260009E4F8E0F9F1F2E0F3F1FD901A95DBE4FBE
:100270005C9322812417A8F4421B56E0569F9001FC
:10028000579F300D1124E20FF31FDF01A85DBE4F11
:100290004C93EB5DFE4F0190F081E02D62E070E049
:1002A000099440E0EACF0895FC0180E090E1819359
:1002B000919386978A302EEF9207C9F70895FC0133
:1002C0001486108A17860895CF93DF93EC016B3F55
:1002D000C9F038F4683F51F06A3F79F0DF91CF916F
:1002E00008956C3FD9F7EA85FB8502C0EE81FF8156
:1002F00088819981DF91CF910994EA85FB85888176
:1003000099810995E885F985F3CFDC01862F807FF7
:100310006F708038A9F08039E9F41D964C911D97D3
:100320008D919C9111971E962C911E97211104C0BE
:100330001496ED91FC9109941296ED91FC91FBCFEE
:100340001496ED91FC9115971D964C911D978D91EA
:100350009C91F1CF0895CF93DF93EC01683F20F09B
:10036000DF91CF910C94640167FF17C06C87862FD3
:10037000807F803E19F0607E603819F482E0888BBF
:100380001F869F858889981305C06C85CE010E94C1
:1003900085011F86DF91CF9108958F8591E0980F99
:1003A0009F87FE01E80FF11D6587EBCFFC016130EF
:1003B000710539F522812F3020F533810480F581D4
:1003C000E02D80819181FC01208332830E944404CE
:1003D000F89483E05A9AFFEF24E33CE0F150204088
:1003E0003040E1F700C000005A989FEFE4E3FCE0E2
:1003F0009150E040F040E1F700C00000815051F71B
:1004000078940895FC01A081B18111968C9162E0ED
:10041000882321F061E0823009F060E070E08281A1
:1004200093810C940F03CF93DF93EC016937B8F4F9
:100430008A819B810E943203893788F4EE81FF8193
:1004400090E0880F991F2C813D81820F931FDC0162
:100450008D919C919183808381E082838383DF915E
:10046000CF910895CF93DF93EC018A819B810E9405
:10047000BA03EE81FF81893798F490E0880F991FC5
:100480002C813D81820F931FDC018D919C91918382
:100490008083EE81FF8181E08383DF91CF91089596
:1004A0001282F7CFFC01CB016130710549F0623057
:1004B000710559F0892B71F4848195810C940202A5
:1004C0006381848195810C94130263818481958179
:1004D0000C9432020895CF93DF93FC01CB0163307B
:1004E000710509F450C040F4892B91F06130710519
:1004F000D1F0DF91CF9108956430710509F475C092
:1005000065307105B1F70480F581E02D1086F1CFDB
:10051000C481D58170E060E08A819B810E94610482
:1005200018861986E6CFA481B58183816CE00E948C
:10053000C3069330F1F078F49130C9F061E0923065
:10054000C9F061E09111D5CF12968D919C91DF9108
:10055000CF910C946D049530A1F06FEF963049F671
:1005600012968D919C91DF91CF910C947B046FEF4B
:10057000EBCF6FEF12968D919C91DF91CF910C9400
:10058000740461E0EDCFC481D5818885882309F4A6
:10059000B0CF8985882311F08C30F1F48A819B815A
:1005A0000E948B04EE81FF81893760F490E0880F10
:1005B000991F2C813D81820F931FDC018D919C91AD
:1005C0009183808381E0828383838985873108F0EA
:1005D000A8CF8F5F89878DCF863011F08231A9F740
:1005E000EE81FF81128281E0EFCF0480F581E02D62
:1005F000118681E080877DCF282F81E090E062170F
:1006000010F090E080E00895282F81E090E0261718
:1006100010F090E080E0089581E090E00895FC0102
:10062000CB0115A214A22FEF20A7DF019F012C5DA3
:100630003F4F4FEF4C931396A217B307D9F7813072
:10064000910551F08230910551F0892B21F48CEF06
:1006500092E097A386A3089584E093E0FACF8CE01C
:1006600093E0F7CFAF92BF92CF92DF92EF92FF92DB
:100670000F931F93CF93DF93EC01162F68A5FC0116
:10068000B12CA12C6F3F59F418A72FC08FEFA81AD7
:10069000B80A3396ACE0AA16B10409F469C08081A7
:1006A0008F3FA1F7EEA1FFA1812F09956501CC0C29
:1006B000DD1CF601EA0DFB1DEC0FFD1F892B09F176
:1006C00088A5808318A786010A0D1B1D0C0F1D1F0E
:1006D000F801128211827E01F4E2EF0EF11C8CA16E
:1006E0009DA1892BD1F41DA30CA388A5DF91CF91E7
:1006F0001F910F91FF90EF90DF90CF90BF90AF9040
:1007000008951083E0CFFA010995892B99F4D70158
:10071000ED90FC90BFEFEB1AFB0AF701A081B181CD
:100720004EA15FA16C91F801808111962D913C91B1
:10073000232B49F7F701A081B181EEA1FFA16C91B4
:10074000D8018C910995F701A081B181892B29F4F9
:1007500012961C930E931197C8CFCA0CDB1CFE0196
:10076000EC0DFD1DB283A183D7010D931C93BDCF6A
:100770008FEFBCCFDC019496ED91FC91959730976B
:1007800081F198968C91989790818617E9F069137A
:1007900009C0218132819FEF908395963C932E93DF
:1007A00094970895DF010180F281E02D309759F090
:1007B00090816913F7CF9FEF908321813281129648
:1007C0003C932E931197089598969C9398978FEF4A
:1007D00080832181328195963C932E939497892F23
:1007E00008958FEF98968C930895FC0110A211A2A2
:1007F0000895FC0181A190A1891B990B4F9741F0AD
:1008000081A1DF01A80FB11D6C938F5F8F7181A350
:100810000895CF93DF93FC01DB0191A180A198178C
:1008200071F080A1EF01C80FD11D98819C938F5F5B
:100830008F7180A390E080E0DF91CF9108958FEFDA
:100840009FEFFACFCF93DF93EC0180E090E00E941E
:10085000F3068C33B1F443E050E061E070E0CE0188
:100860000E94E3068881803108F0188289818031F6
:1008700008F019828A81843C08F01A82DF91CF91B6
:10088000089518821982F9CF43E050E061E070E0EA
:100890000E94FB066CE380E090E00C940B07FC01E7
:1008A000228133814DE6429FC001439F900D112468
:1008B000875A9F4F6BEF70E00E94CF06938382832D
:1008C0000895FC01738362831182108281E0848326
:1008D00086E0858384E086830895FC018481680F27
:1008E000673008F464830895FC018581680F6730E0
:1008F00008F465830895FC018681680F653008F46B
:1009000066830895DC011596EC91EE0FFF0BE25F14
:10091000FE4F80810895EF92FF920F931F93CF9324
:10092000DF938C01DC011596EC911597EE0FFF0B10
:10093000E25FFE4F80819181019721E030E07901F3
:1009400002C0EE0CFF1C8A95E2F7CD91DC91119765
:10095000CE21DF211496EC91EE0FFF0BE45EFE4FEB
:10096000808191810196A1F0C8010E944F04D801B5
:100970001496EC91EE0FFF0BE45EFE4F2081318167
:100980002150310928233923232B11F4CE25DF25CB
:10099000D8011596EC911597EE0FFF0BE25FFE4F15
:1009A00080819181019702C0D695C7958A95E2F71B
:1009B0008D919C911197880F991FC82BD92B119657
:1009C000DC93CE93DD271696EC91EE0FFF0BEC5FD8
:1009D000FE4FCE01008002C0969587950A94E2F7FB
:1009E000DF91CF911F910F91FF90EF90089588E4D0
:1009F00091E00E94F50386E291E00E94F5038FE109
:100A000090E09093C5008093C40086E08093C2007C
:100A100088E98093C1000895BC0188E491E00C94BA
:100A20000904EF92FF920F931F93CF93DF938B01F3
:100A3000EC01F12CE12CE016F10664F08091C1008C
:100A400080628093C100DF91CF911F910F91FF9041
:100A5000EF900895699186E291E00E94F9038FEF8B
:100A6000E81AF80AE8CF1F920F920FB60F921124DE
:100A70002F933F934F935F936F937F938F939F93A6
:100A8000AF93BF93EF93FF936091C60088E491E02A
:100A90000E94F903FF91EF91BF91AF919F918F91C8
:100AA0007F916F915F914F913F912F910F900FBE6A
:100AB0000F901F9018951F920F920FB60F9211244E
:100AC0002F933F934F935F936F937F938F939F9356
:100AD000AF93BF93EF93FF93CF93DF930F92CDB775
:100AE000DEB7BE016F5F7F4F86E291E00E9409048E
:100AF000892BB9F489818093C6000F90DF91CF9143
:100B0000FF91EF91BF91AF919F918F917F916F91E5
:100B10005F914F913F912F910F900FBE0F901F90BB
:100B200018958091C1008F7D8093C100E6CFCDB72D
:100B3000DEB7CD56D1400FB6F894DEBF0FBECDBFA5
:100B400087B18F6187B988B18F6188B98AB18E63A7
:100B50008AB98BB1817C8BB910928100FE01ED596D
:100B6000FE4F8E010F5F1F4F11830083CE0104964D
:100B700093838283C096958384836E012CEBC21A83
:100B80002EEFD20AD782C682AE0145595E4FDA01F6
:100B90000D931C939E01275A3E4FD90119961C9222
:100BA0001E92189711961C930E93BE01635D7F4FA2
:100BB00013967C936E93129715969C938E9314972D
:100BC0001796DC92CE92169767E4E62EFF24F394F4
:100BD000D801B7011D9261507040E1F762E572E003
:100BE000CA5DDE4F79836883C652D140C65DDE4F51
:100BF000F983E883CA52D14066E0FD97DE01A45D27
:100C0000BE4F01900D926A95E1F766E0FE01EA5D44
:100C1000FE4FDE01AE5CBE4F01900D926A95E1F78A
:100C2000C65CDE4F19821882CA53D14066ED71E06E
:100C3000C85CDE4F79836883C853D140C45CDE4F03
:100C400059834883CC53D140C05CDE4F198218824F
:100C5000C054D1404BE652E0C25CDE4F598348831A
:100C6000CE53D140CE5BDE4F39832883C254D1406E
:100C70000E945401C8010E9422042A8176E0279F25
:100C800090011124C9018B5D9E4F200F311FF90186
:100C9000EB5DFE4F0190F081E02D70E060E0800F91
:100CA000911F09957E0188EBE81A8EEFF80AF7018B
:100CB0003C9685E0DF011D928A95E9F7F7011183E3
:100CC000008388EC90E09383828383E291E09583B4
:100CD00084838CE890E09783868380EA90E0918714
:100CE000808784EB90E0938782870E947A00C70117
:100CF0000E945F010E94F7047894BF2C76E0F72EE3
:100D0000CE0183599E4F0E940C05892B49F4C3598B
:100D1000DE4F6881CD56D1408E2D9B2D0E94AB01B8
:100D20002A812F9D90011124C9018B5D9E4F200FB8
:100D3000311FF901EB5DFE4F0190F081E02D66E07F
:100D400070E0800F911F0995C95BDE4F8881C75401
:100D5000D1408823A9F2D6016D917C9180E00E9458
:100D60005300CA5BDE4F8881C654D140882341F0CE
:100D700040985C9AC95BDE4F1882C754D140C0CFFF
:100D8000409A5C98F7CF991B79E004C0991F961799
:100D900008F0961B881F7A95C9F780950895AA1BBD
:100DA000BB1B51E107C0AA1FBB1FA617B70710F056
:100DB000A61BB70B881F991F5A95A9F78095909588
:100DC000BC01CD010895DC01CB01FC01F999FECFF6
:100DD00006C0F2BDE1BDF89A319600B40D924150C3
:100DE0005040B8F70895F999FECF92BD81BDF89AA9
:100DF000992780B50895DC01A40FB51F41505040DC
:100E000048F0CB01840F951F2E910E940C07415092
:100E10005040D0F70895262FF999FECF92BD81BD9D
:100E2000F89A019700B4021639F01FBA20BD0FB628
:0E0E3000F894FA9AF99A0FBE0895F894FFCF3D
:100E3E000101020207000600050004000300020083
:100E4E0003000400050008000C001000020004005E
:060E5E00FFFF0800100078
:0400000300000140B8
:00000001FF
